{
  "_format": "hh-sol-artifact-1",
  "contractName": "NFTMarketplace",
  "sourceName": "contracts/NFTMarketplace.sol",
  "abi": [
    {
      "inputs": [
        {
          "internalType": "address",
          "name": "feeDestinationAccount",
          "type": "address"
        },
        {
          "internalType": "uint256",
          "name": "feeAmount",
          "type": "uint256"
        }
      ],
      "stateMutability": "nonpayable",
      "type": "constructor"
    },
    {
      "anonymous": false,
      "inputs": [
        {
          "indexed": false,
          "internalType": "address",
          "name": "previousFeeAccount",
          "type": "address"
        },
        {
          "indexed": false,
          "internalType": "address",
          "name": "newfeeAcount",
          "type": "address"
        }
      ],
      "name": "FeeAccountUpdated",
      "type": "event"
    },
    {
      "anonymous": false,
      "inputs": [
        {
          "indexed": false,
          "internalType": "uint256",
          "name": "previousFeeAmount",
          "type": "uint256"
        },
        {
          "indexed": false,
          "internalType": "uint256",
          "name": "newFeeAmount",
          "type": "uint256"
        }
      ],
      "name": "FeeAmountUpdated",
      "type": "event"
    },
    {
      "anonymous": false,
      "inputs": [
        {
          "indexed": true,
          "internalType": "address",
          "name": "user",
          "type": "address"
        },
        {
          "indexed": false,
          "internalType": "uint256",
          "name": "amount",
          "type": "uint256"
        },
        {
          "indexed": false,
          "internalType": "uint256",
          "name": "timestamp",
          "type": "uint256"
        }
      ],
      "name": "FundsClaimed",
      "type": "event"
    },
    {
      "anonymous": false,
      "inputs": [
        {
          "indexed": true,
          "internalType": "address",
          "name": "nftAddress",
          "type": "address"
        },
        {
          "indexed": false,
          "internalType": "uint256",
          "name": "tokenId",
          "type": "uint256"
        },
        {
          "indexed": true,
          "internalType": "address",
          "name": "seller",
          "type": "address"
        },
        {
          "indexed": false,
          "internalType": "uint256",
          "name": "cancelTimestamp",
          "type": "uint256"
        }
      ],
      "name": "ListingCancelled",
      "type": "event"
    },
    {
      "anonymous": false,
      "inputs": [
        {
          "indexed": true,
          "internalType": "address",
          "name": "nftAddress",
          "type": "address"
        },
        {
          "indexed": true,
          "internalType": "uint256",
          "name": "tokenId",
          "type": "uint256"
        },
        {
          "indexed": false,
          "internalType": "address",
          "name": "seller",
          "type": "address"
        },
        {
          "indexed": false,
          "internalType": "uint256",
          "name": "price",
          "type": "uint256"
        },
        {
          "indexed": false,
          "internalType": "uint256",
          "name": "listingTimestamp",
          "type": "uint256"
        }
      ],
      "name": "ListingCreated",
      "type": "event"
    },
    {
      "anonymous": false,
      "inputs": [
        {
          "indexed": true,
          "internalType": "address",
          "name": "nftAddress",
          "type": "address"
        },
        {
          "indexed": false,
          "internalType": "uint256",
          "name": "tokenId",
          "type": "uint256"
        },
        {
          "indexed": false,
          "internalType": "uint256",
          "name": "oldPrice",
          "type": "uint256"
        },
        {
          "indexed": false,
          "internalType": "uint256",
          "name": "newPrice",
          "type": "uint256"
        },
        {
          "indexed": false,
          "internalType": "uint256",
          "name": "timestamp",
          "type": "uint256"
        }
      ],
      "name": "ListingPriceUpdated",
      "type": "event"
    },
    {
      "anonymous": false,
      "inputs": [
        {
          "indexed": true,
          "internalType": "address",
          "name": "previousOwner",
          "type": "address"
        },
        {
          "indexed": true,
          "internalType": "address",
          "name": "newOwner",
          "type": "address"
        }
      ],
      "name": "OwnershipTransferred",
      "type": "event"
    },
    {
      "anonymous": false,
      "inputs": [
        {
          "indexed": true,
          "internalType": "address",
          "name": "nftAddress",
          "type": "address"
        },
        {
          "indexed": false,
          "internalType": "uint256",
          "name": "tokenId",
          "type": "uint256"
        },
        {
          "indexed": true,
          "internalType": "address",
          "name": "seller",
          "type": "address"
        },
        {
          "indexed": true,
          "internalType": "address",
          "name": "buyer",
          "type": "address"
        },
        {
          "indexed": false,
          "internalType": "uint256",
          "name": "price",
          "type": "uint256"
        },
        {
          "indexed": false,
          "internalType": "uint256",
          "name": "purchaseTimestamp",
          "type": "uint256"
        }
      ],
      "name": "Purchase",
      "type": "event"
    },
    {
      "inputs": [
        {
          "internalType": "contract IERC721",
          "name": "nft",
          "type": "address"
        },
        {
          "internalType": "uint256",
          "name": "tokenId",
          "type": "uint256"
        }
      ],
      "name": "cancelListing",
      "outputs": [],
      "stateMutability": "nonpayable",
      "type": "function"
    },
    {
      "inputs": [
        {
          "internalType": "contract IERC721",
          "name": "nft",
          "type": "address"
        },
        {
          "internalType": "uint256",
          "name": "tokenId",
          "type": "uint256"
        },
        {
          "internalType": "uint256",
          "name": "price",
          "type": "uint256"
        }
      ],
      "name": "createListing",
      "outputs": [],
      "stateMutability": "nonpayable",
      "type": "function"
    },
    {
      "inputs": [],
      "name": "fee",
      "outputs": [
        {
          "internalType": "uint256",
          "name": "",
          "type": "uint256"
        }
      ],
      "stateMutability": "view",
      "type": "function"
    },
    {
      "inputs": [],
      "name": "feeAccount",
      "outputs": [
        {
          "internalType": "address payable",
          "name": "",
          "type": "address"
        }
      ],
      "stateMutability": "view",
      "type": "function"
    },
    {
      "inputs": [
        {
          "internalType": "contract IERC721",
          "name": "nft",
          "type": "address"
        },
        {
          "internalType": "uint256",
          "name": "tokenId",
          "type": "uint256"
        }
      ],
      "name": "getKey",
      "outputs": [
        {
          "internalType": "bytes32",
          "name": "",
          "type": "bytes32"
        }
      ],
      "stateMutability": "pure",
      "type": "function"
    },
    {
      "inputs": [
        {
          "internalType": "bytes32",
          "name": "",
          "type": "bytes32"
        }
      ],
      "name": "listings",
      "outputs": [
        {
          "internalType": "int256",
          "name": "",
          "type": "int256"
        }
      ],
      "stateMutability": "view",
      "type": "function"
    },
    {
      "inputs": [],
      "name": "listingsCount",
      "outputs": [
        {
          "internalType": "uint256",
          "name": "_value",
          "type": "uint256"
        }
      ],
      "stateMutability": "view",
      "type": "function"
    },
    {
      "inputs": [
        {
          "internalType": "address",
          "name": "",
          "type": "address"
        },
        {
          "internalType": "address",
          "name": "",
          "type": "address"
        },
        {
          "internalType": "uint256",
          "name": "",
          "type": "uint256"
        },
        {
          "internalType": "bytes",
          "name": "",
          "type": "bytes"
        }
      ],
      "name": "onERC721Received",
      "outputs": [
        {
          "internalType": "bytes4",
          "name": "",
          "type": "bytes4"
        }
      ],
      "stateMutability": "nonpayable",
      "type": "function"
    },
    {
      "inputs": [],
      "name": "owner",
      "outputs": [
        {
          "internalType": "address",
          "name": "",
          "type": "address"
        }
      ],
      "stateMutability": "view",
      "type": "function"
    },
    {
      "inputs": [
        {
          "internalType": "contract IERC721",
          "name": "nft",
          "type": "address"
        },
        {
          "internalType": "uint256",
          "name": "tokenId",
          "type": "uint256"
        }
      ],
      "name": "purchase",
      "outputs": [],
      "stateMutability": "payable",
      "type": "function"
    },
    {
      "inputs": [],
      "name": "renounceOwnership",
      "outputs": [],
      "stateMutability": "nonpayable",
      "type": "function"
    },
    {
      "inputs": [
        {
          "internalType": "address",
          "name": "newOwner",
          "type": "address"
        }
      ],
      "name": "transferOwnership",
      "outputs": [],
      "stateMutability": "nonpayable",
      "type": "function"
    },
    {
      "inputs": [
        {
          "internalType": "contract IERC721",
          "name": "nft",
          "type": "address"
        },
        {
          "internalType": "uint256",
          "name": "tokenId",
          "type": "uint256"
        },
        {
          "internalType": "uint256",
          "name": "newPrice",
          "type": "uint256"
        }
      ],
      "name": "updateListingPrice",
      "outputs": [],
      "stateMutability": "nonpayable",
      "type": "function"
    }
  ],
  "bytecode": "0x608060405234801561001057600080fd5b5060405161137338038061137383398101604081905261002f916100b5565b61003833610065565b60018055600480546001600160a01b0319166001600160a01b0393909316929092179091556005556100ef565b600080546001600160a01b038381166001600160a01b0319831681178455604051919092169283917f8be0079c531659141344cd1fd0a4f28419497f9722a3daafe3b4186f6b6457e09190a35050565b600080604083850312156100c857600080fd5b82516001600160a01b03811681146100df57600080fd5b6020939093015192949293505050565b611275806100fe6000396000f3fe6080604052600436106100c25760003560e01c80638de932221161007f578063c18b8db411610059578063c18b8db414610215578063ddca3f4314610242578063f2fde38b14610258578063f7232f671461027857600080fd5b80638de93222146101c2578063a369f72e146101d5578063b2ddee06146101f557600080fd5b8063150b7a02146100c757806324780c561461011057806346b1df041461013257806365e17c9d14610157578063715018a61461018f5780638da5cb5b146101a4575b600080fd5b3480156100d357600080fd5b506100f26100e2366004610f24565b630a85bd0160e11b949350505050565b6040516001600160e01b031990911681526020015b60405180910390f35b34801561011c57600080fd5b5061013061012b366004611004565b610298565b005b34801561013e57600080fd5b506002546101499081565b604051908152602001610107565b34801561016357600080fd5b50600454610177906001600160a01b031681565b6040516001600160a01b039091168152602001610107565b34801561019b57600080fd5b5061013061061b565b3480156101b057600080fd5b506000546001600160a01b0316610177565b6101306101d0366004611039565b61062f565b3480156101e157600080fd5b506101496101f0366004611039565b610957565b34801561020157600080fd5b50610130610210366004611039565b61099e565b34801561022157600080fd5b50610149610230366004611065565b60036020526000908152604090205481565b34801561024e57600080fd5b5061014960055481565b34801561026457600080fd5b5061013061027336600461107e565b610af0565b34801561028457600080fd5b50610130610293366004611004565b610b69565b806000811180156102b057506001600160ff1b038111155b6102d55760405162461bcd60e51b81526004016102cc906110a2565b60405180910390fd5b83836000600360006102e78585610957565b815260200190815260200160002054131561033c5760405162461bcd60e51b8152602060048201526015602482015274139195081a5cc8185b1c9958591e481b1a5cdd1959605a1b60448201526064016102cc565b6040516331a9108f60e11b815260048101869052869086906001600160a01b03831690636352211e90602401602060405180830381865afa158015610385573d6000803e3d6000fd5b505050506040513d601f19601f820116820180604052508101906103a9919061110f565b6001600160a01b0316336001600160a01b0316146103d95760405162461bcd60e51b81526004016102cc9061112c565b87876000826001600160a01b0316636352211e836040518263ffffffff1660e01b815260040161040b91815260200190565b602060405180830381865afa158015610428573d6000803e3d6000fd5b505050506040513d601f19601f8201168201806040525081019061044c919061110f565b60405163020604bf60e21b81526004810184905290915030906001600160a01b0385169063081812fc90602401602060405180830381865afa158015610496573d6000803e3d6000fd5b505050506040513d601f19601f820116820180604052508101906104ba919061110f565b6001600160a01b0316148061053a575060405163e985e9c560e01b81526001600160a01b03828116600483015230602483015284169063e985e9c590604401602060405180830381865afa158015610516573d6000803e3d6000fd5b505050506040513d601f19601f8201168201806040525081019061053a9190611157565b6105b75760405162461bcd60e51b815260206004820152604260248201527f4d61726b6574706c616365206d75737420626520617070726f766564206f722060448201527f617070726f766564466f72416c6c20746f207472616e7366657220746865204e606482015261119560f21b608482015260a4016102cc565b6105c28b8b8b610d6c565b60408051338152602081018b9052428183015290518b916001600160a01b038e16917f81cc9d0dcc671d2335481cdaa5af1e25fc5cf004a309d6ab49ec443e0e9793809181900360600190a35050505050505050505050565b610623610d9f565b61062d6000610df9565b565b610637610e49565b81816000600360006106498585610957565b815260200190815260200160002054136106755760405162461bcd60e51b81526004016102cc90611179565b6040516331a9108f60e11b815260048101849052849084906001600160a01b03831690636352211e90602401602060405180830381865afa1580156106be573d6000803e3d6000fd5b505050506040513d601f19601f820116820180604052508101906106e2919061110f565b6001600160a01b031633036107445760405162461bcd60e51b815260206004820152602260248201527f4e4654206f776e65722063616e27742063616c6c20746869732066756e63746960448201526137b760f11b60648201526084016102cc565b60006107508787610957565b600081815260036020526040902054909150348111156107bd5760405162461bcd60e51b815260206004820152602260248201527f496e73756666696369656e742066756e647320746f207075726368617365204e604482015261119560f21b60648201526084016102cc565b6107c9816000196111ba565b6000838152600360205260409020556107e26002610ea2565b6040516331a9108f60e11b8152600481018890526000906001600160a01b038a1690636352211e90602401602060405180830381865afa15801561082a573d6000803e3d6000fd5b505050506040513d601f19601f8201168201806040525081019061084e919061110f565b604051632142170760e11b81526001600160a01b038083166004830152336024830152604482018b9052919250908a16906342842e0e90606401600060405180830381600087803b1580156108a257600080fd5b505af11580156108b6573d6000803e3d6000fd5b50506040516001600160a01b038416925084156108fc02915084906000818181858888f193505050501580156108f0573d6000803e3d6000fd5b5060408051898152602081018490524281830152905133916001600160a01b0384811692908d16917fac14cac126dec46eb2cef1007f2e33dcf4704d2be6c45b0855acf8b81b89e084919081900360600190a45050505050505061095360018055565b5050565b6040516bffffffffffffffffffffffff19606084901b1660208201526034810182905260009060540160405160208183030381529060405280519060200120905092915050565b81816000600360006109b08585610957565b815260200190815260200160002054136109dc5760405162461bcd60e51b81526004016102cc90611179565b6040516331a9108f60e11b815260048101849052849084906001600160a01b03831690636352211e90602401602060405180830381865afa158015610a25573d6000803e3d6000fd5b505050506040513d601f19601f82011682018060405250810190610a49919061110f565b6001600160a01b0316336001600160a01b031614610a795760405162461bcd60e51b81526004016102cc9061112c565b60036000610a878888610957565b815260200190815260200160002060009055610aa36002610ea2565b6040805186815242602082015233916001600160a01b038916917f7e9346997a866f9da27c72b74f12d9f30db039f0ac25228e3c63a916977f3cca910160405180910390a3505050505050565b610af8610d9f565b6001600160a01b038116610b5d5760405162461bcd60e51b815260206004820152602660248201527f4f776e61626c653a206e6577206f776e657220697320746865207a65726f206160448201526564647265737360d01b60648201526084016102cc565b610b6681610df9565b50565b80600081118015610b8157506001600160ff1b038111155b610b9d5760405162461bcd60e51b81526004016102cc906110a2565b8383600060036000610baf8585610957565b81526020019081526020016000205413610bdb5760405162461bcd60e51b81526004016102cc90611179565b6040516331a9108f60e11b815260048101869052869086906001600160a01b03831690636352211e90602401602060405180830381865afa158015610c24573d6000803e3d6000fd5b505050506040513d601f19601f82011682018060405250810190610c48919061110f565b6001600160a01b0316336001600160a01b031614610c785760405162461bcd60e51b81526004016102cc9061112c565b6000610c848989610957565b600081815260036020526040902054909150808803610cfc5760405162461bcd60e51b815260206004820152602e60248201527f4e6577207072696365206d75737420626520646966666572656e742066726f6d60448201526d2063757272656e7420707269636560901b60648201526084016102cc565b6000828152600360209081526040918290208a905581518b81529081018390529081018990524260608201526001600160a01b038b16907fbee49f4b4e1806a7223a369d870ce896e8102b340c2965cb5641529ba9915e119060800160405180910390a250505050505050505050565b610d7a600280546001019055565b8060036000610d898686610957565b8152602081019190915260400160002055505050565b6000546001600160a01b0316331461062d5760405162461bcd60e51b815260206004820181905260248201527f4f776e61626c653a2063616c6c6572206973206e6f7420746865206f776e657260448201526064016102cc565b600080546001600160a01b038381166001600160a01b0319831681178455604051919092169283917f8be0079c531659141344cd1fd0a4f28419497f9722a3daafe3b4186f6b6457e09190a35050565b600260015403610e9b5760405162461bcd60e51b815260206004820152601f60248201527f5265656e7472616e637947756172643a207265656e7472616e742063616c6c0060448201526064016102cc565b6002600155565b805480610ef15760405162461bcd60e51b815260206004820152601b60248201527f436f756e7465723a2064656372656d656e74206f766572666c6f77000000000060448201526064016102cc565b600019019055565b6001600160a01b0381168114610b6657600080fd5b634e487b7160e01b600052604160045260246000fd5b60008060008060808587031215610f3a57600080fd5b8435610f4581610ef9565b93506020850135610f5581610ef9565b925060408501359150606085013567ffffffffffffffff80821115610f7957600080fd5b818701915087601f830112610f8d57600080fd5b813581811115610f9f57610f9f610f0e565b604051601f8201601f19908116603f01168101908382118183101715610fc757610fc7610f0e565b816040528281528a6020848701011115610fe057600080fd5b82602086016020830137600060208483010152809550505050505092959194509250565b60008060006060848603121561101957600080fd5b833561102481610ef9565b95602085013595506040909401359392505050565b6000806040838503121561104c57600080fd5b823561105781610ef9565b946020939093013593505050565b60006020828403121561107757600080fd5b5035919050565b60006020828403121561109057600080fd5b813561109b81610ef9565b9392505050565b60208082526047908201527f496e76616c69642070726963652e204e6565647320746f20626520706f73697460408201527f69766520616e64206e6f7420657863656564204d617820496e742076616c6964606082015266103b30b63ab29760c91b608082015260a00190565b60006020828403121561112157600080fd5b815161109b81610ef9565b6020808252601190820152702737ba103a34329027232a1037bbb732b960791b604082015260600190565b60006020828403121561116957600080fd5b8151801515811461109b57600080fd5b602080825260119082015270139195081a5cc81b9bdd081b1a5cdd1959607a1b604082015260600190565b634e487b7160e01b600052601160045260246000fd5b60006001600160ff1b03818413828413808216868404861116156111e0576111e06111a4565b600160ff1b60008712828116878305891216156111ff576111ff6111a4565b6000871292508782058712848416161561121b5761121b6111a4565b87850587128184161615611231576112316111a4565b50505092909302939250505056fea2646970667358221220ce6a30a2f343dd67a8e75db734055177b5aa65ffcaf0ffa8e8d387acd0978f8164736f6c63430008100033",
  "linkReferences": {},
  "deployedLinkReferences": {}
}