{
  "_format": "hh-sol-artifact-1",
  "contractName": "NFTMarketplace",
  "sourceName": "contracts/NFTMarketplace.sol",
  "abi": [
    {
      "inputs": [],
      "stateMutability": "nonpayable",
      "type": "constructor"
    },
    {
      "anonymous": false,
      "inputs": [
        {
          "indexed": true,
          "internalType": "address",
          "name": "nftAddress",
          "type": "address"
        },
        {
          "indexed": false,
          "internalType": "uint256",
          "name": "tokenId",
          "type": "uint256"
        },
        {
          "indexed": true,
          "internalType": "address",
          "name": "seller",
          "type": "address"
        },
        {
          "indexed": false,
          "internalType": "uint256",
          "name": "cancelTimestamp",
          "type": "uint256"
        }
      ],
      "name": "ListingCancelled",
      "type": "event"
    },
    {
      "anonymous": false,
      "inputs": [
        {
          "indexed": true,
          "internalType": "address",
          "name": "nftAddress",
          "type": "address"
        },
        {
          "indexed": true,
          "internalType": "uint256",
          "name": "tokenId",
          "type": "uint256"
        },
        {
          "indexed": false,
          "internalType": "address",
          "name": "seller",
          "type": "address"
        },
        {
          "indexed": false,
          "internalType": "uint256",
          "name": "price",
          "type": "uint256"
        },
        {
          "indexed": false,
          "internalType": "uint256",
          "name": "listingTimestamp",
          "type": "uint256"
        }
      ],
      "name": "ListingCreated",
      "type": "event"
    },
    {
      "anonymous": false,
      "inputs": [
        {
          "indexed": true,
          "internalType": "address",
          "name": "nftAddress",
          "type": "address"
        },
        {
          "indexed": false,
          "internalType": "uint256",
          "name": "tokenId",
          "type": "uint256"
        },
        {
          "indexed": false,
          "internalType": "uint256",
          "name": "oldPrice",
          "type": "uint256"
        },
        {
          "indexed": false,
          "internalType": "uint256",
          "name": "newPrice",
          "type": "uint256"
        },
        {
          "indexed": false,
          "internalType": "uint256",
          "name": "timestamp",
          "type": "uint256"
        }
      ],
      "name": "ListingPriceUpdated",
      "type": "event"
    },
    {
      "anonymous": false,
      "inputs": [
        {
          "indexed": true,
          "internalType": "address",
          "name": "nftAddress",
          "type": "address"
        },
        {
          "indexed": false,
          "internalType": "uint256",
          "name": "tokenId",
          "type": "uint256"
        },
        {
          "indexed": true,
          "internalType": "address",
          "name": "seller",
          "type": "address"
        },
        {
          "indexed": true,
          "internalType": "address",
          "name": "buyer",
          "type": "address"
        },
        {
          "indexed": false,
          "internalType": "uint256",
          "name": "offeredPrice",
          "type": "uint256"
        },
        {
          "indexed": false,
          "internalType": "uint256",
          "name": "offerAcceptedTimestamp",
          "type": "uint256"
        }
      ],
      "name": "NFTOfferAccepted",
      "type": "event"
    },
    {
      "anonymous": false,
      "inputs": [
        {
          "indexed": true,
          "internalType": "address",
          "name": "nftAddress",
          "type": "address"
        },
        {
          "indexed": false,
          "internalType": "uint256",
          "name": "tokenId",
          "type": "uint256"
        },
        {
          "indexed": true,
          "internalType": "address",
          "name": "seller",
          "type": "address"
        },
        {
          "indexed": true,
          "internalType": "address",
          "name": "buyer",
          "type": "address"
        },
        {
          "indexed": false,
          "internalType": "uint256",
          "name": "offerCancelledTimestamp",
          "type": "uint256"
        }
      ],
      "name": "NFTOfferCancelled",
      "type": "event"
    },
    {
      "anonymous": false,
      "inputs": [
        {
          "indexed": true,
          "internalType": "address",
          "name": "nftAddress",
          "type": "address"
        },
        {
          "indexed": false,
          "internalType": "uint256",
          "name": "tokenId",
          "type": "uint256"
        },
        {
          "indexed": true,
          "internalType": "address",
          "name": "seller",
          "type": "address"
        },
        {
          "indexed": true,
          "internalType": "address",
          "name": "buyer",
          "type": "address"
        },
        {
          "indexed": false,
          "internalType": "uint256",
          "name": "offer",
          "type": "uint256"
        },
        {
          "indexed": false,
          "internalType": "uint256",
          "name": "offerCreatedTimestamp",
          "type": "uint256"
        }
      ],
      "name": "NewNFTOffer",
      "type": "event"
    },
    {
      "anonymous": false,
      "inputs": [
        {
          "indexed": true,
          "internalType": "address",
          "name": "previousOwner",
          "type": "address"
        },
        {
          "indexed": true,
          "internalType": "address",
          "name": "newOwner",
          "type": "address"
        }
      ],
      "name": "OwnershipTransferred",
      "type": "event"
    },
    {
      "anonymous": false,
      "inputs": [
        {
          "indexed": true,
          "internalType": "address",
          "name": "nftAddress",
          "type": "address"
        },
        {
          "indexed": false,
          "internalType": "uint256",
          "name": "tokenId",
          "type": "uint256"
        },
        {
          "indexed": true,
          "internalType": "address",
          "name": "seller",
          "type": "address"
        },
        {
          "indexed": true,
          "internalType": "address",
          "name": "buyer",
          "type": "address"
        },
        {
          "indexed": false,
          "internalType": "uint256",
          "name": "price",
          "type": "uint256"
        },
        {
          "indexed": false,
          "internalType": "uint256",
          "name": "purchaseTimestamp",
          "type": "uint256"
        }
      ],
      "name": "Purchase",
      "type": "event"
    },
    {
      "inputs": [
        {
          "internalType": "contract IERC721",
          "name": "nft",
          "type": "address"
        },
        {
          "internalType": "uint256",
          "name": "tokenId",
          "type": "uint256"
        },
        {
          "internalType": "address",
          "name": "buyer",
          "type": "address"
        }
      ],
      "name": "acceptNFTOffer",
      "outputs": [],
      "stateMutability": "nonpayable",
      "type": "function"
    },
    {
      "inputs": [
        {
          "internalType": "contract ERC721WithPermit",
          "name": "nft",
          "type": "address"
        },
        {
          "internalType": "uint256",
          "name": "tokenId",
          "type": "uint256"
        },
        {
          "internalType": "address",
          "name": "receiver",
          "type": "address"
        },
        {
          "internalType": "uint256",
          "name": "deadline",
          "type": "uint256"
        },
        {
          "internalType": "bytes",
          "name": "signature",
          "type": "bytes"
        }
      ],
      "name": "acceptNFTOfferWithPermit",
      "outputs": [],
      "stateMutability": "nonpayable",
      "type": "function"
    },
    {
      "inputs": [
        {
          "internalType": "contract IERC721",
          "name": "nft",
          "type": "address"
        },
        {
          "internalType": "uint256",
          "name": "tokenId",
          "type": "uint256"
        }
      ],
      "name": "cancelListing",
      "outputs": [],
      "stateMutability": "nonpayable",
      "type": "function"
    },
    {
      "inputs": [
        {
          "internalType": "contract IERC721",
          "name": "nft",
          "type": "address"
        },
        {
          "internalType": "uint256",
          "name": "tokenId",
          "type": "uint256"
        }
      ],
      "name": "cancelNFTOffer",
      "outputs": [],
      "stateMutability": "nonpayable",
      "type": "function"
    },
    {
      "inputs": [
        {
          "internalType": "contract IERC721",
          "name": "nft",
          "type": "address"
        },
        {
          "internalType": "uint256",
          "name": "tokenId",
          "type": "uint256"
        },
        {
          "internalType": "uint256",
          "name": "price",
          "type": "uint256"
        }
      ],
      "name": "createListing",
      "outputs": [],
      "stateMutability": "nonpayable",
      "type": "function"
    },
    {
      "inputs": [
        {
          "internalType": "contract IERC721",
          "name": "nft",
          "type": "address"
        },
        {
          "internalType": "uint256",
          "name": "tokenId",
          "type": "uint256"
        }
      ],
      "name": "createNFTOffer",
      "outputs": [],
      "stateMutability": "payable",
      "type": "function"
    },
    {
      "inputs": [
        {
          "internalType": "contract IERC721",
          "name": "nft",
          "type": "address"
        },
        {
          "internalType": "uint256",
          "name": "tokenId",
          "type": "uint256"
        }
      ],
      "name": "getKey",
      "outputs": [
        {
          "internalType": "bytes32",
          "name": "",
          "type": "bytes32"
        }
      ],
      "stateMutability": "pure",
      "type": "function"
    },
    {
      "inputs": [
        {
          "internalType": "bytes32",
          "name": "",
          "type": "bytes32"
        }
      ],
      "name": "listings",
      "outputs": [
        {
          "internalType": "uint256",
          "name": "",
          "type": "uint256"
        }
      ],
      "stateMutability": "view",
      "type": "function"
    },
    {
      "inputs": [
        {
          "internalType": "bytes32",
          "name": "",
          "type": "bytes32"
        },
        {
          "internalType": "address",
          "name": "",
          "type": "address"
        }
      ],
      "name": "nftOffers",
      "outputs": [
        {
          "internalType": "uint256",
          "name": "",
          "type": "uint256"
        }
      ],
      "stateMutability": "view",
      "type": "function"
    },
    {
      "inputs": [
        {
          "internalType": "address",
          "name": "",
          "type": "address"
        },
        {
          "internalType": "address",
          "name": "",
          "type": "address"
        },
        {
          "internalType": "uint256",
          "name": "",
          "type": "uint256"
        },
        {
          "internalType": "bytes",
          "name": "",
          "type": "bytes"
        }
      ],
      "name": "onERC721Received",
      "outputs": [
        {
          "internalType": "bytes4",
          "name": "",
          "type": "bytes4"
        }
      ],
      "stateMutability": "nonpayable",
      "type": "function"
    },
    {
      "inputs": [],
      "name": "owner",
      "outputs": [
        {
          "internalType": "address",
          "name": "",
          "type": "address"
        }
      ],
      "stateMutability": "view",
      "type": "function"
    },
    {
      "inputs": [
        {
          "internalType": "contract IERC721",
          "name": "nft",
          "type": "address"
        },
        {
          "internalType": "uint256",
          "name": "tokenId",
          "type": "uint256"
        }
      ],
      "name": "purchase",
      "outputs": [],
      "stateMutability": "payable",
      "type": "function"
    },
    {
      "inputs": [],
      "name": "renounceOwnership",
      "outputs": [],
      "stateMutability": "nonpayable",
      "type": "function"
    },
    {
      "inputs": [
        {
          "internalType": "address",
          "name": "newOwner",
          "type": "address"
        }
      ],
      "name": "transferOwnership",
      "outputs": [],
      "stateMutability": "nonpayable",
      "type": "function"
    },
    {
      "inputs": [
        {
          "internalType": "contract IERC721",
          "name": "nft",
          "type": "address"
        },
        {
          "internalType": "uint256",
          "name": "tokenId",
          "type": "uint256"
        },
        {
          "internalType": "uint256",
          "name": "newPrice",
          "type": "uint256"
        }
      ],
      "name": "updateListingPrice",
      "outputs": [],
      "stateMutability": "nonpayable",
      "type": "function"
    }
  ],
  "bytecode": "0x608060405234801561001057600080fd5b5061001a33610023565b60018055610073565b600080546001600160a01b038381166001600160a01b0319831681178455604051919092169283917f8be0079c531659141344cd1fd0a4f28419497f9722a3daafe3b4186f6b6457e09190a35050565b611bb0806100826000396000f3fe6080604052600436106100e85760003560e01c80638de932221161008a578063c18b8db411610059578063c18b8db414610281578063f2fde38b146102ae578063f7232f67146102ce578063fbacd2c9146102ee57600080fd5b80638de932221461020e578063985d73a714610221578063a369f72e14610241578063b2ddee061461026157600080fd5b806324780c56116100c657806324780c5614610191578063665c25a3146101b1578063715018a6146101d15780638da5cb5b146101e657600080fd5b80630db7ec99146100ed5780631302004f14610102578063150b7a021461014d575b600080fd5b6101006100fb3660046116f6565b61030e565b005b34801561010e57600080fd5b5061013a61011d366004611722565b600360209081526000928352604080842090915290825290205481565b6040519081526020015b60405180910390f35b34801561015957600080fd5b50610178610168366004611768565b630a85bd0160e11b949350505050565b6040516001600160e01b03199091168152602001610144565b34801561019d57600080fd5b506101006101ac366004611848565b610579565b3480156101bd57600080fd5b506101006101cc36600461187d565b6108df565b3480156101dd57600080fd5b50610100610adf565b3480156101f257600080fd5b506000546040516001600160a01b039091168152602001610144565b61010061021c3660046116f6565b610af3565b34801561022d57600080fd5b5061010061023c3660046116f6565b610dc8565b34801561024d57600080fd5b5061013a61025c3660046116f6565b610ee9565b34801561026d57600080fd5b5061010061027c3660046116f6565b610f30565b34801561028d57600080fd5b5061013a61029c366004611927565b60026020526000908152604090205481565b3480156102ba57600080fd5b506101006102c9366004611940565b611089565b3480156102da57600080fd5b506101006102e9366004611848565b611102565b3480156102fa57600080fd5b50610100610309366004611964565b6112f2565b6040516331a9108f60e11b815260048101829052829082906001600160a01b03831690636352211e90602401602060405180830381865afa158015610357573d6000803e3d6000fd5b505050506040513d601f19601f8201168201806040525081019061037b91906119a6565b6001600160a01b031633036103ab5760405162461bcd60e51b81526004016103a2906119c3565b60405180910390fd5b8383600260006103bb8484610ee9565b8152602001908152602001600020546000146104115760405162461bcd60e51b8152602060048201526015602482015274139195081a5cc8185b1c9958591e481b1a5cdd1959605a1b60448201526064016103a2565b6003600061041f8888610ee9565b8152602080820192909252604090810160009081203382529092529020541561048a5760405162461bcd60e51b815260206004820152601e60248201527f596f75206861766520616c7265616479206d61646520616e206f66666572000060448201526064016103a2565b34600360006104998989610ee9565b8152602080820192909252604090810160009081203380835293528190209290925590516331a9108f60e11b8152600481018790526001600160a01b03881690636352211e90602401602060405180830381865afa1580156104ff573d6000803e3d6000fd5b505050506040513d601f19601f8201168201806040525081019061052391906119a6565b60408051888152346020820152428183015290516001600160a01b03928316928a16917f8dcd19ba6d58a06d575e5dd1b9fc71b8bfe288111736c5081d2e4a9ac03138ac919081900360600190a4505050505050565b806000811161059a5760405162461bcd60e51b81526004016103a290611a05565b8383600260006105aa8484610ee9565b8152602001908152602001600020546000146106005760405162461bcd60e51b8152602060048201526015602482015274139195081a5cc8185b1c9958591e481b1a5cdd1959605a1b60448201526064016103a2565b6040516331a9108f60e11b815260048101869052869086906001600160a01b03831690636352211e90602401602060405180830381865afa158015610649573d6000803e3d6000fd5b505050506040513d601f19601f8201168201806040525081019061066d91906119a6565b6001600160a01b0316336001600160a01b03161461069d5760405162461bcd60e51b81526004016103a290611a4b565b87876000826001600160a01b0316636352211e836040518263ffffffff1660e01b81526004016106cf91815260200190565b602060405180830381865afa1580156106ec573d6000803e3d6000fd5b505050506040513d601f19601f8201168201806040525081019061071091906119a6565b60405163020604bf60e21b81526004810184905290915030906001600160a01b0385169063081812fc90602401602060405180830381865afa15801561075a573d6000803e3d6000fd5b505050506040513d601f19601f8201168201806040525081019061077e91906119a6565b6001600160a01b031614806107fe575060405163e985e9c560e01b81526001600160a01b03828116600483015230602483015284169063e985e9c590604401602060405180830381865afa1580156107da573d6000803e3d6000fd5b505050506040513d601f19601f820116820180604052508101906107fe9190611a76565b61087b5760405162461bcd60e51b815260206004820152604260248201527f4d61726b6574706c616365206d75737420626520617070726f766564206f722060448201527f617070726f766564466f72416c6c20746f207472616e7366657220746865204e606482015261119560f21b608482015260a4016103a2565b6108868b8b8b6114be565b60408051338152602081018b9052428183015290518b916001600160a01b038e16917f81cc9d0dcc671d2335481cdaa5af1e25fc5cf004a309d6ab49ec443e0e9793809181900360600190a35050505050505050505050565b6108e76114e3565b6040516331a9108f60e11b815260048101869052869086906001600160a01b03831690636352211e90602401602060405180830381865afa158015610930573d6000803e3d6000fd5b505050506040513d601f19601f8201168201806040525081019061095491906119a6565b6001600160a01b0316336001600160a01b0316146109845760405162461bcd60e51b81526004016103a290611a4b565b6001600160a01b0386166109da5760405162461bcd60e51b815260206004820152601e60248201527f52656365697665722063616e2774206265205a65726f2061646472657373000060448201526064016103a2565b60006109e789898961153c565b905060008111610a095760405162461bcd60e51b81526004016103a290611a98565b610a4c8989888a89898080601f0160208091040260200160405190810160405280939291908181526020018383808284376000920191909152506115ca92505050565b604051339082156108fc029083906000818181858888f19350505050158015610a79573d6000803e3d6000fd5b506040805189815260208101839052428183015290516001600160a01b03898116923392918d16917f44e67467566c350d60a83226c502d372247f2d5a3c99ac4f486bae8bba1823da9181900360600190a4505050610ad760018055565b505050505050565b610ae7611637565b610af16000611691565b565b610afb6114e3565b8181600060026000610b0d8585610ee9565b81526020019081526020016000205411610b395760405162461bcd60e51b81526004016103a290611ac6565b6040516331a9108f60e11b815260048101849052849084906001600160a01b03831690636352211e90602401602060405180830381865afa158015610b82573d6000803e3d6000fd5b505050506040513d601f19601f82011682018060405250810190610ba691906119a6565b6001600160a01b03163303610bcd5760405162461bcd60e51b81526004016103a2906119c3565b6000610bd98787610ee9565b60008181526002602052604090205490915034811115610c465760405162461bcd60e51b815260206004820152602260248201527f496e73756666696369656e742066756e647320746f207075726368617365204e604482015261119560f21b60648201526084016103a2565b600082815260026020526040808220829055516331a9108f60e11b8152600481018990526001600160a01b038a1690636352211e90602401602060405180830381865afa158015610c9b573d6000803e3d6000fd5b505050506040513d601f19601f82011682018060405250810190610cbf91906119a6565b604051632142170760e11b81526001600160a01b038083166004830152336024830152604482018b9052919250908a16906342842e0e90606401600060405180830381600087803b158015610d1357600080fd5b505af1158015610d27573d6000803e3d6000fd5b50506040516001600160a01b038416925084156108fc02915084906000818181858888f19350505050158015610d61573d6000803e3d6000fd5b5060408051898152602081018490524281830152905133916001600160a01b0384811692908d16917fac14cac126dec46eb2cef1007f2e33dcf4704d2be6c45b0855acf8b81b89e084919081900360600190a450505050505050610dc460018055565b5050565b610dd06114e3565b6000610ddd83833361153c565b905060008111610dff5760405162461bcd60e51b81526004016103a290611a98565b604051339082156108fc029083906000818181858888f19350505050158015610e2c573d6000803e3d6000fd5b506040516331a9108f60e11b81526004810183905233906001600160a01b03851690636352211e90602401602060405180830381865afa158015610e74573d6000803e3d6000fd5b505050506040513d601f19601f82011682018060405250810190610e9891906119a6565b604080518581524260208201526001600160a01b03928316928716917fcf0b16d4438a2a0fc6b26ebb01acd976dc3c8ee954f57d61e93ee30d9870753a910160405180910390a450610dc460018055565b6040516bffffffffffffffffffffffff19606084901b1660208201526034810182905260009060540160405160208183030381529060405280519060200120905092915050565b8181600060026000610f428585610ee9565b81526020019081526020016000205411610f6e5760405162461bcd60e51b81526004016103a290611ac6565b6040516331a9108f60e11b815260048101849052849084906001600160a01b03831690636352211e90602401602060405180830381865afa158015610fb7573d6000803e3d6000fd5b505050506040513d601f19601f82011682018060405250810190610fdb91906119a6565b6001600160a01b0316336001600160a01b03161461100b5760405162461bcd60e51b81526004016103a290611a4b565b600260006110198888610ee9565b815260200190815260200160002060009055336001600160a01b0316866001600160a01b03167f7e9346997a866f9da27c72b74f12d9f30db039f0ac25228e3c63a916977f3cca8742604051611079929190918252602082015260400190565b60405180910390a3505050505050565b611091611637565b6001600160a01b0381166110f65760405162461bcd60e51b815260206004820152602660248201527f4f776e61626c653a206e6577206f776e657220697320746865207a65726f206160448201526564647265737360d01b60648201526084016103a2565b6110ff81611691565b50565b80600081116111235760405162461bcd60e51b81526004016103a290611a05565b83836000600260006111358585610ee9565b815260200190815260200160002054116111615760405162461bcd60e51b81526004016103a290611ac6565b6040516331a9108f60e11b815260048101869052869086906001600160a01b03831690636352211e90602401602060405180830381865afa1580156111aa573d6000803e3d6000fd5b505050506040513d601f19601f820116820180604052508101906111ce91906119a6565b6001600160a01b0316336001600160a01b0316146111fe5760405162461bcd60e51b81526004016103a290611a4b565b600061120a8989610ee9565b6000818152600260205260409020549091508088036112825760405162461bcd60e51b815260206004820152602e60248201527f4e6577207072696365206d75737420626520646966666572656e742066726f6d60448201526d2063757272656e7420707269636560901b60648201526084016103a2565b6000828152600260209081526040918290208a905581518b81529081018390529081018990524260608201526001600160a01b038b16907fbee49f4b4e1806a7223a369d870ce896e8102b340c2965cb5641529ba9915e119060800160405180910390a250505050505050505050565b6112fa6114e3565b6040516331a9108f60e11b815260048101839052839083906001600160a01b03831690636352211e90602401602060405180830381865afa158015611343573d6000803e3d6000fd5b505050506040513d601f19601f8201168201806040525081019061136791906119a6565b6001600160a01b0316336001600160a01b0316146113975760405162461bcd60e51b81526004016103a290611a4b565b60006113a486868661153c565b9050600081116113c65760405162461bcd60e51b81526004016103a290611a98565b604051632142170760e11b81523360048201526001600160a01b038581166024830152604482018790528716906342842e0e90606401600060405180830381600087803b15801561141657600080fd5b505af115801561142a573d6000803e3d6000fd5b505060405133925083156108fc02915083906000818181858888f1935050505015801561145b573d6000803e3d6000fd5b506040805186815260208101839052428183015290516001600160a01b03868116923392918a16917f44e67467566c350d60a83226c502d372247f2d5a3c99ac4f486bae8bba1823da9181900360600190a45050506114b960018055565b505050565b80600260006114cd8686610ee9565b8152602081019190915260400160002055505050565b6002600154036115355760405162461bcd60e51b815260206004820152601f60248201527f5265656e7472616e637947756172643a207265656e7472616e742063616c6c0060448201526064016103a2565b6002600155565b60006003600061154c8686610ee9565b81526020019081526020016000206000836001600160a01b03166001600160a01b031681526020019081526020016000205490506003600061158e8686610ee9565b81526020019081526020016000206000836001600160a01b03166001600160a01b03168152602001908152602001600020600090559392505050565b60405163091d135560e21b81526001600160a01b038616906324744d54906115fe9033908690899089908890600401611af1565b600060405180830381600087803b15801561161857600080fd5b505af115801561162c573d6000803e3d6000fd5b505050505050505050565b6000546001600160a01b03163314610af15760405162461bcd60e51b815260206004820181905260248201527f4f776e61626c653a2063616c6c6572206973206e6f7420746865206f776e657260448201526064016103a2565b600080546001600160a01b038381166001600160a01b0319831681178455604051919092169283917f8be0079c531659141344cd1fd0a4f28419497f9722a3daafe3b4186f6b6457e09190a35050565b6001600160a01b03811681146110ff57600080fd5b6000806040838503121561170957600080fd5b8235611714816116e1565b946020939093013593505050565b6000806040838503121561173557600080fd5b823591506020830135611747816116e1565b809150509250929050565b634e487b7160e01b600052604160045260246000fd5b6000806000806080858703121561177e57600080fd5b8435611789816116e1565b93506020850135611799816116e1565b925060408501359150606085013567ffffffffffffffff808211156117bd57600080fd5b818701915087601f8301126117d157600080fd5b8135818111156117e3576117e3611752565b604051601f8201601f19908116603f0116810190838211818310171561180b5761180b611752565b816040528281528a602084870101111561182457600080fd5b82602086016020830137600060208483010152809550505050505092959194509250565b60008060006060848603121561185d57600080fd5b8335611868816116e1565b95602085013595506040909401359392505050565b60008060008060008060a0878903121561189657600080fd5b86356118a1816116e1565b95506020870135945060408701356118b8816116e1565b935060608701359250608087013567ffffffffffffffff808211156118dc57600080fd5b818901915089601f8301126118f057600080fd5b8135818111156118ff57600080fd5b8a602082850101111561191157600080fd5b6020830194508093505050509295509295509295565b60006020828403121561193957600080fd5b5035919050565b60006020828403121561195257600080fd5b813561195d816116e1565b9392505050565b60008060006060848603121561197957600080fd5b8335611984816116e1565b925060208401359150604084013561199b816116e1565b809150509250925092565b6000602082840312156119b857600080fd5b815161195d816116e1565b60208082526022908201527f4e4654206f776e65722063616e27742063616c6c20746869732066756e63746960408201526137b760f11b606082015260800190565b60208082526026908201527f496e76616c69642070726963652e204e6565647320746f2062652061626f7665604082015265103d32b9379760d11b606082015260800190565b6020808252601190820152702737ba103a34329027232a1037bbb732b960791b604082015260600190565b600060208284031215611a8857600080fd5b8151801515811461195d57600080fd5b60208082526014908201527313d999995c88191bd95cc81b9bdd08195e1a5cdd60621b604082015260600190565b602080825260119082015270139195081a5cc81b9bdd081b1a5cdd1959607a1b604082015260600190565b600060018060a01b03808816835260208188168185015286604085015260c06060850152600060c085015285608085015260e060a0850152845191508160e085015260005b82811015611b535785810182015185820161010001528101611b36565b5050610100600081838601015280601f19601f84011685010192505050969550505050505056fea264697066735822122020b69148885092e9db7f5516c45156e066d7abfc7d269d935c565692580c1c5664736f6c63430008100033",
  "linkReferences": {},
  "deployedLinkReferences": {}
}